:040000008A158229B2
:0E000600F201F101F001F801F30100300800F1
:100014007B15FB1F14280130F300F201F101F001FC
:08002400FA0DF20CFF30080098
:08002C00FA1FF2130030080076
:10003400FB14FB1F2428FF30F300F200F100F00052
:08004400FA0DF20CFF30080078
:10004C007C185C28FC182D287C197B282628A001FC
:10005C007208031D4D287108F2007008F100780831
:10006C00F000F801A0157208031D4D287108F2006C
:10007C007008F100F001A01120167208031D4D2824
:10008C007108F200F101A015720803196F282008FD
:10009C00F302031D031C73280310F21B5C28F80DDC
:1000AC00F00DF10DF20DF30B532873287B1B701C14
:1000BC007728F81F7728F00A0319F10A0319F20AB6
:1000CC00031D7728F20CF10CF00CF30A03197B28B2
:1000DC0077280130FC0003207E280230FC000A2027
:1000EC007E280430FC0016207E280830FC001A20E4
:0400FC0000000800F8
:10010000A0017208031D95287108F2007008F10023
:10011000F001A0157208031D95287108F200F10185
:10012000A011201672080319A3282008F302031D4A
:10013000031CA7280310F21BAB28F00DF10DF20DE4
:10014000F30B9B28A7280130FC000320AE280230C7
:0E015000FC000A20AE280430FC001620080037
:10015E0083120313F801F9011030FC00710DF80D34
:10016E00F90D7408F8027508031C750FF9020318CF
:10017E00C7287408F80775080318750FF9070310D8
:0A018E00F00DF10DFC0BB528080080
:1001980083120313FA017308031D7A147708031DE9
:1001A800FA147A0803191829033A0319E3287A1864
:1001B800E028F61F16291429F21F14291629720897
:1001C8008039FA00F21376088039F6137A06031993
:1001D800F1287A08031914291629770873020319D4
:1001E800F828031C0C291029760872020319FF2825
:1001F800031C0C2910297508710203190629031C10
:100208000C291029740870020319182903181029D9
:10021800FA08031916291429FA08031914291629A2
:10022800031408000310080003140315080008004D
:1002380083120313FD01F8017008031900347406D2
:10024800FA00FA1BFD09FB01F41F2C29F409F40A32
:10025800F01F3029F009F00A70087404FA00FA1B3C
:1002680054297408F802F00D700DF80D7408F80799
:10027800F00D0630FC00700DF80D74087018F802C7
:10028800701CF807F00DFC0B3F29701CF8077B1851
:100298006229FD1F0034F009F00AF809F80A003451
:1002A800F41F5F29F01B5C297008F800F0014D2944
:1002B800F001F00A0034F009FB0A3529F80A74083D
:1002C8007802031D4D29F801F00AF01F4D29FF346B
:0202D80008001C
:1002DA00831603136408F2007208F100F20A650833
:1002EA00F000E50A700884000008F0007108840034
:1002FA007008800071088400000803198529712993
:06030A006408F000080089
:100310007B14FB1F9329F201FA1FFF30F200F1005A
:0A032000F000FA0DF20CFF300800A7
:10032A0083120313FB017308031D77080319EC29D1
:10033A0072087606FA007708F3077E30031CA929AB
:10034A00F3020318EF29AC29F302031CF2297208FD
:10035A00F8007108FC007008FD00F817F617031082
:10036A00F201F101F0011830A0007D1CC6297408C1
:10037A00F00775080318750FF10776080318760F4A
:10038A00F207F20CF10CF00CF80CFC0CFD0C03104B
:10039A00A00BBA29F21BD629F80DF00DF10DF20DBA
:1003AA00F3037B1B701CE829F81FE829F00A0319DC
:1003BA00F10A0319F20A031DE829F20CF10CF00CF8
:1003CA00F30A0319EF29FA1FF2130030F429013056
:1003DA000320F42902301A20F42904300A200000EC
:0203EA00080009
:1003EC0083160313E701053067020318042A670814
:1003FC006607840020308000E70AF9296708660741
:10040C0084008001E70367086607E8000A30F400FF
:10041C00F5016408F0006508F100AF207808F000E1
:10042C007908F1003030F0078316680884007008F2
:10043C0080000A30F400F5016408F0006508F10052
:10044C00AF2070088316E4007108E50000307106D7
:10045C00031D322A00307006031D352A372AE703A4
:04046C00092A080051
:100470008316031398183E2A0000382A6408831252
:0404800099000800D7
:06048400FB15FF3008002B
:10048A008312031372087606A000F801F9017308B3
:10049A007702031C682A7708FD007308F7007D08B5
:1004AA00F3007608FD007208F6007D08F200750870
:1004BA00FD007108F5007D08F1007408FD00700860
:1004CA00F4007D08F00077080319E12A7208FA009F
:1004DA00F217F61777087302F70003199B2A0830F8
:1004EA007702031C912AF7007408F9007508F400D2
:1004FA007608F500F60108307702031C912AF70006
:10050A007408F9007508F400F50108307702031C35
:10051A00912A7A08F200E12A770803199B2A031024
:10052A00F60CF50CF40CF90CF70B942AA01FA82A68
:10053A00F909F409F509F609F90A0319F40A03197C
:10054A00F50A0319F60A7908F80774080318740FEC
:10055A00F00775080318750FF10776080318760F68
:10056A00F207A01BC12A031CD12AF20CF10CF00CD1
:10057A00F80CF30FD12ADD2A0318D52AF809F00955
:10058A00F109F209F80A0319F00A0319F10A031921
:10059A00F20A8030FA06D92A0130FC002620E32A22
:1005AA000230FC002620E32A0430FC008020E32AE3
:1005BA000830FC001A20E32A0030FC000000080082
:1005CA0083160313981690308312980083168717A0
:1005DA00071383128C1EF42A1A08F000EE2A080068
:1005EA0083160313D90183126F0884000008831647
:1005FA00D8005808003A03190F2B5808E40038228B
:10060A008316D90A590883126F07840000088316D3
:06061A00D800FE2A0800D2
:1006200083160313E201E3015808DE005908DF00D6
:100630005A08E0005B08E1006108FF3A031D2A2B1D
:100640006008FF3A031D2A2B5F08FF3A031D2A2B7F
:100650005E08FF3A031D342B5C08E4002930E500F6
:100660006D210330F0001B2D01308312EF00831643
:10067000E01F472B80306006F0007008E000831216
:10068000EF0A83165C0884002D308000DC0A0030FD
:10069000F0006106031D562B70086006031D562BE3
:1006A00070085F06031D562B5E08003A031D5F2B82
:1006B0005C08E4004430E5006D21F0011B2D610869
:1006C000FF3A031D6D2B6008003A031D6D2B5F0878
:1006D000003A031D6D2B5E08003A031D782B5C0861
:1006E000E4004030E5006D2183126F08F0001B2DFF
:1006F0000030F4000030F5000030F6007F30F700E5
:1007000083165E08F0005F08F1006008F2006108DF
:10071000F300CC20013003180030F00070080319FA
:10072000AE2B83165E08F0005F08F1006008F2004F
:100730006108F3000030F4000030F5002030F600CE
:100740008230F700952170088316DE007108DF0003
:100750007208E0007308E100E303782B8316003091
:10076000F4000030F5002030F6008230F7005E081B
:10077000F0005F08F1006008F2006108F300CC208F
:100780000130031C0030F00070080319E42B8316BD
:100790005E08F0005F08F1006008F2006108F300F5
:1007A000CD30F400CC30F5004C30F6007B30F70053
:1007B000952170088316DE007108DF007208E000E2
:1007C0007308E100E30AAE2B8316FF305E05F800E4
:1007D000FF305F05F9007F306005FA0000306105E9
:1007E000FB007808F4007908F5007A08F6007B0829
:1007F000F700F40DF50DF60DF70D741000305E05E1
:10080000F00000305F05F10000306005F200FF30BD
:100810006105F3007008DE007108DF007208E00077
:100820007308E10074085E04F00075085F04F100CD
:1008300076086004F20077086104F3007008DE00B7
:100840007108DF007208E0007308E1007F30610288
:10085000F0007008DD000130E1007008F4005E086F
:10086000F0005F08F1006008F2006108F30074080E
:100870000319412CF00DF10DF20DF30D7010FF3E38
:10088000382C7008DE007108DF007208E000730881
:10089000E1006108303EF0005C08840070088000D0
:1008A000DC0A80306306F0008030013A7002031CDD
:1008B000622C8030063AF000803063067002031C20
:1008C000622C692C5C0884002E308000DC0A013028
:1008D000E2000630DD005D08003A0319C72CE10193
:1008E0005E08F0005F08F1006008F2006108F300A4
:1008F000F00DF10DF20DF30D7010F00DF10DF20D84
:10090000F30D70105E08F0075F0803185F0FF10722
:1009100060080318600FF20761080318610FF307FE
:100920007008DE007108DF007208E0007308E10063
:100930005E08F0005F08F1006008F2006108F30053
:10094000F00DF10DF20DF30D70107008DE0071085E
:10095000DF007208E0007308E1006108303EF0003B
:100960005C08840070088000DC0A6208003A031DFD
:10097000C52CE3036308003A031DC52C5C08840002
:100980002E308000DC0A0130E200DD036B2CFF30EA
:100990005C0784000008303A031DD02CDC03C72C10
:1009A000FF305C07840000082E3A031DD82CDC03BE
:1009B0006308003A0319172D5C0884006530800035
:1009C000DC0A80306306F0008030003A70020318C1
:1009D000F12C5C0884002D308000DC0A6308003CA8
:1009E000E3006308DD008030093AF00080306306E0
:1009F00070020318082D0A30F4005D08F0001C2175
:100A00003030F00783165C08840070088000DC0A30
:100A10000A30F4005D08F0001C217808F000303046
:100A2000F00783165C08840070088000DC0A5C080C
:080A300084008001F0010800C0
:100A3800831203137408003A031D372D7508003A12
:100A4800031D372D7608003A031D372D7708003A25
:100A5800031D372DFF30F000FF30F1007F30F2002A
:100A6800FF30F300D22D8312031377080319C62D24
:100A780073080319C92D720876068039FA00F2172F
:100A8800F617A0017208F8007108FC007008FD0054
:100A98007408FD027508031C750FFC027608031C18
:100AA800760FF802F801FC01FD01031C622D03100A
:100AB800F20CF10CF00CF80C0130A0007708F302EE
:100AC800031C6C2D7E302007F3070318CC2D712DE5
:100AD8007E302007F307031CCF2D1830FA07FD0DD1
:100AE800FC0DF80DF00DF10DF20DA00D7408F002DB
:100AF8007508031C750FF1027608031C760FF202C5
:100B0800760DA004201C8A2D7D14952D7408F007FD
:100B180075080318750FF10776080318760AF207A7
:100B28007D10FA031F307A05031D732D7B1B7D1C76
:100B3800BC2D0310F00DF10DF20DA00D7408F0029C
:100B48007508031C750FF1027608031C760FF20274
:100B5800760D20040139FD070318FC0A0319F80A69
:100B6800031DBC2DF80CFC0CFD0CF30A0319CC2D4D
:100B7800FA1FF8137808F2007C08F1007D08F000ED
:100B88000030D12D01304222D12D02300320D12D49
:0E0B980004301A20D12D08300A200000080079
:0C0BA600831203138030F606452208007D
:100BB20083120313F101F201831659087202031D15
:100BC200E42D580871020318F92DF301F4010030E5
:100BD2007402031DEE2D6F3073020318F52D000011
:100BE200F30A0319F40AE82DF10A0319F20ADD2DBA
:020BF2000800F9
:100BF40083160313DD01DE015808DF005908E00005
:100C040080305906F00080307002031D0B2E003036
:100C140058020318192E0130DD000030DE00580898
:100C2400003CDF005908031C013EE001E0025F08BC
:100C3400E4006008E5005A08E600F6210630DB000F
:100C44000030DC005C08003C031D2A2E5B08003CDD
:100C54000318452E5B085A07F20001305B02F000CE
:100C64000030031C013E5C02F10070085A07840046
:100C74000008F00072088400700880000130DB0274
:100C8400031CDC03242E5A088400203080005D08F5
:100C94005E040319632EDB01DC015B085A07840040
:100CA4000008203A031D5A2EDB0A0319DC0A4F2ED2
:100CB4000130DB02031CDC035B085A0784002D307F
:040CC40080000800A4
:100CC800831203137008F8007108F000F101F201B3
:100CD800F301FB01FC019630F300FA017008F10002
:0C0CE8007808F000F801F20180200800FC
:100CF40083120313FB01FC01FA0173080319B92ED3
:100D0400F2178E30F302F31B8A2E03198A2EBC2E9F
:100D1400F309F30A08307302031C9F2EF300F10D4C
:100D24007208F100F20108307302031C9F2EF10DCA
:100D3400F1017308031D0310A72E73080319A72ECE
:100D44000310F20CF10CF30BA22E7B1B711CB12EC1
:100D5400031CB12EF10A0319F20AF21BC82EFA1F62
:100D6400CB2EF209F109F10A0319F20ACB2EF20192
:100D7400F101CB2E7B14FB1FCE2EF201FA1FCE2ED7
:100D8400FF30F200F100FA0DF20CCE2E0130FC001F
:100D9400D02E0030FC00D02EFF30FC00FC080319DC
:0E0DA400D42E88217108F0007208F1000800BA
:0E0DB200831203135F088A005E0882000800A7
:100DC00001308312031386000630FD00FD0BE62E72
:060DD0000000860108008E
:100DD60083120313DD011A30FD00FD0BF02E000017
:100DE6000619022F3530FD00FD0BF72E061DFD2ED0
:100DF6000130DD001A30FD00FD0BFF2E000008005B
:100E0600831203138801C8308316D800D901D92567
:020E16000800D2
:100E1800831603134008D8004108D900C830DA0007
:100E2800FA25C8308312EF00F52223308312EF0031
:100E3800F5224208D8004308D900C830DA00FA255C
:100E4800C8308312EF00F52221308312EF00F5221B
:100E58004408D8004508D900C830DA00FA25C83057
:100E68008312EF00F52227308312EF00F52246089F
:100E7800D8004708D900C830DA00FA25C8308312EC
:100E8800EF00F52225308312EF00F522C830D80094
:060E9800D901D925080074
:100E9E005A30831203136D07F3006E080318013ED8
:100EAE00F4000330F2007308F0007408F1007208C9
:100EBE000319662FF00DF10D7010FF3E5F2FF43009
:100ECE007007F30071080318013E013EF400730829
:100EDE00F0007408F100F10CF00CF113711BF11716
:100EEE00F10CF00CF113711BF11770089500CF3057
:100EFE001705F50003307305F2007208F000F00DCF
:100F0E007010F00D7010F00D7010F00D7010700864
:100F1E0075049700C8308316D8000030D900D92543
:080F2E0083120313880108007F
:100F3600831203136D08F0006E08F1006426700832
:100F46008316D8007108D9007208DA007308DB002E
:100F5600C030DC001023C03083120313EF00F522EB
:020F6600080081
:100F6800831203136D08F0006E08F1006426333015
:100F7800F4003330F5002330F6008130F700952176
:100F88000030F400C030F5007F30F6008830F700FC
:100F98001C257008F4007108F5007208F600730843
:100FA800F7003D30F0000A30F1002730F2008130C0
:100FB800F300D3250830F400AC30F5001C30F600FF
:080FC8007C30F7001C25080035
:100FD000583083120313880064308316D800003021
:060FE000D900D92508002C
:100FE6000C3083120313970007309204F9308316EE
:040FF600920008005D
:10100000A43083120313880064308316D8000030A4
:0A101000D9008A11D9258A150800BD
:10101A008316031306158312061112308316D8009D
:10102A000030D9008A11D9258A15831203130615AF
:10103A001330FD00FD0B1F28000000008316061167
:02104A0008009C
:10104C00C030831603139F00113083129F009E0142
:10105C0083169E010630FD00FD0B32280000153072
:10106C0083129F001F1D3B283828EE309F051E0859
:10107C00F100F00183161E08F0040030F1040800A2
:10108C000F308312031388002C308316D8000130E4
:0A109C00D9008A11D9258A15080031
:1010A600623083120313880064308316D800003040
:0A10B600D9008A11D9258A15080017
:1010C000C030831603139F00013083129F009E01DE
:1010D00083169E010630FD00FD0B6C2800000530D4
:1010E00083129F001F1D75287228FE309F051E0861
:1010F000F100F00183161E08F0040030F10408002E
:10110000333083160313990018158A11E5228A15C6
:1011100064308316D8000030D9008A11D9258A1589
:021120000800C5
:101122008A11E0268A15FF30ED00FF30EE008618A6
:10113200AA280130ED02031CEE0300306E06031DE7
:10114200A42800306D06031DA928F001F101D4285E
:1011520098288F018E0101309000FF30ED00FF30A2
:10116200EE00861CC5280130ED02031CEE030030A0
:101172006E06031DBE2800306D06031DC4289001B3
:10118200F001F101D428B22890010F08F100F0011A
:101192000E08F0040030F1043A30F4000030F5009B
:0811A2008A11AF208A15080034
:1011AA008A11D9268A150A128000840ADE0A0319CE
:0A11BA00DF0AF003031DD52808002A
:1011C400C030831603139F00193083129F009E01C1
:1011D40083169E010630FD00FD0BEE2800008312ED
:1011E4001F151F1DF628F3281E08F100F0018316B1
:1011F4001E08F0040030F1048A1164268A150030B8
:10120400F4000030F5002030F6008130F7008A1138
:1012140095218A150030F400C030F5007F30F600C7
:101224008830F7008A111C258A150030F40000303C
:10123400F5004830F6008530F7008A1195218A15AB
:081244008A117A268A150800C0
:10124C00831203131A08F100981C2E291812181671
:06125C007108F00008001B
:0E1262000030831203138C1A0130F0000800D4
:10127000913083120313880064308316D800003045
:0A128000D9008A11D9258A1508004B
:10128A00FF3083160313850006308600403087003E
:10129A008801831285018601870188019F018316CF
:1012AA009F0183128C018B0164308316D8000030B1
:0A12BA00D9008A11D9258A15080011
:1012C400C030831603139F00093083129F009E01D0
:1012D40083169E010630FD00FD0B6E2900000D30C3
:1012E40083129F001F1D77297429F6309F051E085D
:1012F400F100F00183161E08F0040030F104080028
:10130400DA22452180208A11F3278A154A30831274
:10131400EF008A11F5228A1591207008E000710807
:10132400E100602070088312E2007108E30062218A
:1013340070088312E4007108E500E2207008E600FA
:101344007108E700262070088312ED007108EE0092
:101354008A11B4278A157008E9007108EA00720836
:10136400EB007308EC000D208A11EB268A1531215D
:1013740070080319762A26217008E8007008463A96
:10138400031DC6293821762A831203136808423ABA
:10139400031DCE295320762A831203136808443A86
:1013A400031D172A60088316C00083126108831680
:1013B400C100831262088316C20083126308831675
:1013C400C300831264088316C4008312650883165D
:1013D400C500831266088316C60083126708831645
:1013E400C7008A110C278A15831203136908F000B9
:1013F4006A08F1006B08F2006C08F3008A117A267F
:101404008A157008ED007108EE008A119B278A1571
:1014140046308312EF008A11F5228A15C830D800AD
:10142400D9018A11D9258A15762A831203136808EB
:10143400573A031D292AA030EF008A11F5228A1594
:1014440059308312EF008A11F5228A15762A831205
:101454006808533A031D4C2A5A30ED000030EE0060
:101464008A114F278A15F4308316D8000130D90029
:101474008A11D9258A15A63083120313ED00FF3093
:10148400EE008A114F278A15ED01EE018A114F27CC
:101494008A15762A68084C3A031D542A8A11E827CB
:1014A4008A15762A831203136808523A031D5C2AAC
:1014B4000020762A8312031368084F3A031D642A16
:1014C4004620762A831203136808583A031D6F2AAC
:1014D40046208A1103278A15762A2D308312031396
:0C14E400EF008A11F5228A158E29772A64
:1015B400213084003C3083120313F0007D30DE00C0
:1015C4000A30DF00D520A030840020308312F000E0
:0C15D400B930DE000A30DF00D52008002E
:0414FA002C3400345A
:0414FE002C34003456
:041502002C34003451
:041506002C3400344D
:08150A004E3461344E3400340C
:101512000A344934203468346134743465342034F4
:101522006D34793420346C346934663465340D3466
:061532000A340A34003403
:0815380049344E3446340034FE
:04154000303400340F
:081544000D340A340A340034AE
:10154C00533479347334743465346D3420345334F7
:0E155C0074346134723474340D340A34003443
:08156A000D340A340A34003488
:101572000A34443469347334743461346E346334F9
:1015820065342C3420344C34443452342C342034DA
:101592004D346F346934733474342C3420345434FD
:1015A20065346D3470342C34203450344834003473
:02400E004A2F37
:00000001FF
